:020000040000FA
:1000000020020020F100000017010000D5000000D0
:1000100000000000000000000000000000000000E0
:100020000000000000000000000000001B010000B4
:1000300000000000000000001D0100001F01000082
:100040002101000021010000210100002101000028
:100050002101000021010000210100002101000018
:10006000210100002D0800002101000021010000F5
:1000700021010000210100002101000021010000F8
:1000800021010000210100002101000021010000E8
:1000900021010000210100002101000021010000D8
:1000A00021010000210100002101000021010000C8
:1000B00021010000210100002101000021010000B8
:1000C0000348854600F09AF800480047990F000061
:1000D0002002002004207146084202D0EFF309807C
:1000E00001E0EFF308807146004A1047B1040000B8
:1000F0000C480D4901600D4901600D4901600D4A30
:100100000D4911600D4A0E491160002101600D4832
:1001100080470D480047FEE7FEE7FEE7FEE7FEE703
:10012000FEE700000001004059000000160000003A
:100130008800000024000040A55A00008002004012
:100140000100000011070000C100000030B50B469F
:10015000014600202022012409E00D46D5409D42A1
:1001600005D31D469540491B254695404019154627
:10017000521E002DF1DC30BD03460B439B0703D01C
:1001800009E008C9121F08C0042AFAD203E00B785C
:100190000370401C491C521EF9D27047F0B51FB4C1
:1001A0000646002082B005464024019100901BE0E5
:1001B000019922460F46304600F042F8049A059B0A
:1001C000801A994110D310461946224600F028F8AB
:1001D000361A8F410197224601200021009F00F02E
:1001E0001FF838184D4100902046641E0028DFDCBF
:1001F000019B00982946324607B0F0BD064C012508
:10020000064E05E0E36807CC2B430C3C98471034BE
:10021000B442F7D3FFF758FF28110000481100003F
:1002200010B5202A04DB0146203A9140002010BD81
:10023000914020239C1A0346E3401943904010BD8F
:1002400010B5202A04DB0846203AD040002110BD1A
:100250000B46D340D0402024A21A914008431946AF
:1002600010BD00000EB509490EC900910192810F21
:100270008A00029369468A58054951184A68C3069C
:10028000DB0E0120984002434A600EBDE0100000E2
:100290000002004002490A6802430A6070470000F9
:1002A0000002004010B500F0E9F90148006810BDF7
:1002B0000000002010B500F0E1F90148006810BD11
:1002C0000000002002480068C00700D001487047C5
:1002D000000200400048E80104480068800702D599
:1002E0000120C0037047002070470000000200405A
:1002F00010B500F0C3F90448406B41070348490FAB
:100300000068C84010BD000000020040000000204E
:1003100010B500F0B3F90448406B4006410F0348A4
:100320000068C84010BD000000020040000000202E
:1003300008B511A000681149009009680020052245
:100340001204114216D1080301D50D4800E00D48F2
:100350008A030FD40A04920F6B469B5CCA0589047A
:10036000D20DC90E891C8008921C59435043FFF7D7
:10037000EDFE800008BD00000102020440020040C2
:10038000001BB7000048E801F3B5124881B00569C9
:100390000F4610200F4C0540403C20680426304397
:1003A0002060102000F050F82069072108432061E8
:1003B000206A0009000138432062206988430199BE
:1003C0000843206100F05AF9002D02D12068B043A3
:1003D0002060FEBD40020040F0B5194B88B0F0CB64
:1003E000009401ACE0C478CB04AF78C7840A23063C
:1003F0001B0E0ED003039B0F9B0004ADEB58114D59
:100400005B19E5B28405E40EA5401C68AC431443B7
:100410001C60420E520710D08200920F92006B4671
:100420009A58084B103BD21803015B0FC001C00E55
:100430008340106898430843106008B0F0BD000086
:10044000C01000002002004010B504460749084BC8
:1004500005E00A46491E002A01DC002010BD1A6989
:1004600020469043F5D1012010BD000080F520000A
:100470004002004010B501229103024800F004F848
:1004800010BD000040400040F0B5002301273C466D
:100490009C400C4208D005685C000326A640B5438A
:1004A0001646A640354305605B1C102BEFD3F0BD0C
:1004B000044603A000F010FB204600F079FDFEE7A3
:1004C000496E2048617264204661756C74204861F1
:1004D0006E646C65720A0000F8B520481E49C1615F
:1004E00041688908890041601C481D49403001600D
:1004F000002101620846012421468140C9061AD51F
:10050000164980310D6B032742003B46934002267B
:100510009D43964035430D630D6B16461036B7402C
:10052000BD430D634D6B9D43234693401D434D6377
:100530004A6BBA434A63401C0628DDDB074D102195
:10054000284600F011F81021284600F012F805495D
:10055000087820430870F8BDE703000000800540DC
:100560007FBB0000100000208030826D0A4382654E
:10057000704770B5002201252B4693400B4206D0F0
:10058000046A560876002B46B3401C430462521C92
:10059000062AF1D370BD0000F8B55920234C16226D
:1005A00088212060226021602368002BF9D000227E
:1005B0000C211F48FFF768FF0520FFF76BFE112095
:1005C000FFF742FF00210220FFF7DEFE194D28460B
:1005D000FFF748FE184E3046FFF744FE174F3846E7
:1005E000FFF740FE0022B9052846FFF7F5FE072178
:1005F000002209033046FFF7EFFE002201213846B2
:10060000FFF7EAFEA806C16BFF22120491433322D2
:1006100052048918C163816BF0229143B031816328
:1006200000F02CF800202060F8BD00000001004020
:1006300040410040103D805F0300C05E100000A2FA
:100640000121020E890751188B6801228240134351
:100650008B608868904388607047000006498A690B
:100660001202FCD408600A2804D188690002FCD474
:100670000D2008607047000000000740F8B51D4DD0
:1006800028691C4944071CA000680090640F0020E2
:100690004031096805221204114216D1080301D520
:1006A000164800E016488A030FD40A04920F6B46DE
:1006B0009B5CCA058904D20DC90E891C8008921C56
:1006C00059435043FFF742FD80000E4E022CB060AC
:1006D00002D00D49A0000858296A0907090F491CD2
:1006E000FFF734FD094930604A108018FFF72EFDEE
:1006F0007060F8BD0002004001020204001BB70058
:100700000048E801000000205810000040420F009F
:1007100010B559210A48162388220160036002603F
:100720000468002CF9D007490B680722120593438F
:100730000B600B6813430B600021016010BD0000CB
:10074000000100400002004010B50A4C7D2201214A
:10075000D200C906204600F049F820682106084367
:100760002060081504490860206889050843206056
:1007700010BD00002000054000E100E010B588B089
:100780000446202215496846FFF7F6FC144B144A2C
:1007900014482033944202D14069000A0BE09C4285
:1007A00002D14069000B06E00F4940698C4201D13B
:1007B000000C00E0000D4107490F022904D0880019
:1007C0006946085808B010BD944201D09C4202D13D
:1007D000FFF78EFDF6E7FFF79BFDF3E7F81000004B
:1007E000000005400002004000100540F7B5174624
:1007F0000646FFF7C3FF054600244008B84201D86B
:10080000022008E039462846FFF7A0FC040E02D07B
:10081000611CFFF79BFC0199214331607060641CEF
:10082000604301462846FFF791FCFEBDF8B520491C
:100830008868C007C00F39D001268E601D4D7D2706
:10084000A888FF00411CA9800146FF39F5391FD156
:100850001948AE800068EC88401C60433946FFF7B9
:1008600075FC154A10622878C10701D0641C00E0AD
:10087000641EA1B2EC80B94202D14008400002E0FF
:10088000002901D1304328700C48816B714081638D
:100890006888411C6980B84208D300206880AA6833
:1008A0000749501CA86007A000F016F9F8BD000029
:1008B00020000540100000204080054040480040D6
:1008C000181100002573203A202534640D0A000019
:1008D00010B51948FFF7B4FE184CE1214902204633
:1008E00000F07CF81421204600F0EAF8FFF7DAFC6B
:1008F000014613A000F0F0F8FFF7DCFC014617A05A
:1009000000F0EAF8FFF7DEFC01461AA000F0E4F878
:10091000FFF7E2FC01461DA000F0DEF8FFF7E8FC5F
:10092000014620A000F0D8F8FFF7F2FC014624A011
:1009300000F0D2F810BD00001000000400000740D5
:100940000D0A434C4B5F47657443505546726571C1
:10095000203A202538640D0A00000000434C4B5F0C
:1009600047657448434C4B46726571203A202538E0
:10097000640D0A00434C4B5F4765744858544672F7
:100980006571203A202538640D0A0000434C4B5F06
:100990004765744C585446726571203A2025386476
:1009A0000D0A0000434C4B5F47657450434C4B307D
:1009B00046726571203A202538640D0A0000000057
:1009C000434C4B5F47657450434C4B3146726571E5
:1009D000203A202538640D0A00000000F0B587B0E9
:1009E0000F46044600252E4618222E496846FFF77A
:1009F000C3FB2D492D482E4A8C4205D14369006A1C
:100A00005B015D0F000A0FE02A4B9C4206D143694F
:100A1000006A5B005D0F0004060F07E0944205D1F9
:100A2000C369006B5B015D0F0607360F0020206372
:100A30000320E060A068204B1840A060012D02D088
:100A4000042D04D00DE0FFF773FC019009E08C4207
:100A500001D0944202D1FFF74BFC01E0FFF758FCB4
:100A60000490002F1BD0A90068464058711CFFF766
:100A70006DFB0546790840183946FFF767FB0F49BB
:100A8000801E884207D9F90068183946FFF75EFBD7
:100A90000009801E02E0032109070843606207B0D5
:100AA000F0BD000078100000000007400002004088
:100AB00000200740001007400FFFF0FFFFFF00007D
:100AC000026A120A12020A43026241680122D20239
:100AD00011434160704700000FB410B503A9044BE7
:100AE000044A029800F018F810BC08BC04B018477B
:100AF0008D0F00000C00002002E008C8121F08C182
:100B0000002AFAD170477047002001E001C1121F8E
:100B1000002AFBD170470000FFB591B00F46054693
:100B2000002606E025280AD0149A139990476D1CD8
:100B3000761C28780028F5D1304615B0F0BD002489
:100B400000940121F34A029400E004436D1C2B78C9
:100B50000846203B98401042F7D128782A280ED02A
:100B6000022128780246303A092A15D8009A0A2329
:100B70005A43303A80180C436D1C0090F1E701CFC6
:100B80000090002805DA0120400304430098404209
:100B90000090022004436D1C28782E2815D10420D3
:100BA000044368786D1C2A280AD101CF6D1C02907D
:100BB0000BE002990A225143303940186D1C029013
:100BC0002878014630390929F3D928786C2810D0C3
:100BD00006DC4C281AD068280ED06A2817D104E009
:100BE000742813D07A2812D110E001204005044364
:100BF0000CE00121090501E0032109050C43697896
:100C0000814203D10120000524186D1C6D1C287839
:100C100003906E281ED00CDC632831D004DC002841
:100C20008AD0582811D1B2E064287BD069280CD131
:100C300078E073282DD004DC6F2870D0702804D1A0
:100C4000A7E075286CD078286BD0149A1399904738
:100C5000761C62E06002400F022807D003280AD009
:100C6000042838680AD006603F1D56E03868F1173E
:100C700006604160F8E738680680F5E70670F3E73C
:100C80003878694608740020487404A8039001204D
:100C900003E0386803900020C0433F1D61070FD573
:100CA000002101E00199491C029A0191914213DA55
:100CB0008142F7DB019A0399895C0029F2D10BE0AC
:100CC000002101E00199491C01918142FADB019A5E
:100CD0000399895C0029F5D101990098139A401A6B
:100CE00000902146149B00F03BF9019980194618A9
:100CF00007E0039803990078491C0391149A13990B
:100D000090470198401E0190401CF2D12146149B4F
:100D1000139A009800F014F986196D1C09E741E058
:100D200033E034E00A200021049005916002410F75
:100D3000022905D001CFC2179446032905D007E048
:100D4000FF1DFF08FF0003CF06E000B2C217944664
:100D5000042902D140B2C1178C4600226146944555
:100D600006DA0A460021404291418C462D2102E0DC
:100D7000210504D52B216A461176012103E0E10704
:100D800001D02021F7E7019154E00A200BE0102068
:100D900009E010200490002104200443082005915C
:100DA000029003E008200021059104906002410FA9
:100DB000022905D001CF00229446032906D006E07F
:100DC000FF1DFF08FF0003CF8C4603E080B204291B
:100DD00000D1C0B20021019121072BD503997029C0
:100DE00006D0049A1021059B4A401A4305D00EE014
:100DF00040216A461176012108E06146014306D090
:100E000030216A4611760399517602210191049AA4
:100E10000821059B4A401A430CD16146014301D188
:100E2000610707D530216A461176012101910299A7
:100E3000491E02910399582904D037A103910FA9A3
:100E40000F910DE039A1F9E76146059B049AFFF780
:100E5000A5F9039B8C469B5C0F9A521E0F92137050
:100E600061460143F0D10F9807A9081A203003907A
:100E7000600704D5012000048443029801E00120AA
:100E800002900399884201DD401A00E000204118D9
:100E90000290019809180098401A0090E00306D4C7
:100EA0002146149B139A009800F05AF886190020E6
:100EB000049008E006A9085C149A139990470498D6
:100EC000401C761C049001998842F3DBE0030CD5AA
:100ED0002146149B139A009800F042F8861904E00A
:100EE000149A302013999047761C0299481E02905C
:100EF0000029F5DC08E00F980F990078491C0F9144
:100F0000149A13999047761C0399481E0390002960
:100F1000F1DCFBE609280100303132333435363755
:100F20003839616263646566000000003031323335
:100F300034353637383941424344454600000000D5
:100F4000F8B5044600251E461746880404D405E07B
:100F500039462020B0476D1C641EF9D52846F8BDDF
:100F6000FFB50446002581B01E46C80301D53027D1
:100F700000E02027880404D505E038460399B047EF
:100F80006D1C641EF9D5284605B0F0BD10B50446A9
:100F9000FFF764FB204610BDFFF7FEFAFFF798FC51
:100FA000FFF768FAFFF798FAFFF7CEFBFEE70000BD
:100FB00010B50446016810A0FFF78EFD11A061680E
:100FC000FFF78AFD12A0A168FFF786FD13A0E16874
:100FD000FFF782FD14A02169FFF77EFD15A061696E
:100FE000FFF77AFD16A0A169FFF776FD17A0E1696A
:100FF000FFF772FD10BD0000723020203D203078D8
:1010000025780A00723120203D20307825780A00AA
:10101000723220203D20307825780A00723320205B
:101020003D20307825780A00723132203D2030781A
:1010300025780A006C7220203D20307825780A003F
:10104000706320203D20307825780A00707372206C
:101050003D20307825780A000048E8010080000033
:1010600000D8B80500960000006CDC02000000000B
:1010700000000000006CDC020048E80100000000F5
:1010800000800000006CDC02000000000096000000
:101090000048E8010000000000800000006CDC0255
:1010A00000000000009600000048E8010000000079
:1010B00000800000006CDC020000000000960000D0
:1010C0000000000004000000080000000C00000008
:1010D0000000000000000000000000001000000000
:1010E00000000000040000000800000000000000F4
:1010F00004000000080000000048E8010080000033
:101100000000000000000000000000000096000049
:1011100000000000006CDC02544D52315F49525116
:1011200048616E646C657200481100000000002088
:101130001C000000F80A0000641100001C000020E0
:1011400004020000080B000000D8B8056000000091
:1011500000D8B80500000000000000000100F40104
:04116000000000008B
:04000005000000F106
:00000001FF
